:10000000E07F0010B5250000E5250000E725000091
:10001000E9250000EB250000ED25000000000000B0
:10002000000000000000000000000000EF250000BC
:10003000F125000000000000F3250000F525000078
:10004000F7250000F7250000F7250000F725000040
:10005000F7250000F7250000F7250000F725000030
:10006000F7250000F7250000F7250000F725000020
:10007000F7250000F7250000F7250000F725000010
:10008000F7250000F7250000F7250000F725000000
:10009000F7250000F7250000F7250000F7250000F0
:1000A000F7250000F7250000F7250000F7250000E0
:1000B000F7250000F7250000F7250000F7250000D0
:1000C000F7250000F7250000F725000000000000DC
:1000D0000000000000000000000000000000000020
:1000E0000000000000000000000000000000000010
:1000F0000000000000000000000000000000000000
:1001000000000000000000000000000000000000EF
:1002F000000000000000000000000000FFFFFFFF02
:100300000348044B834202D0034B03B118477047A4
:10031000900B0010900B00100000000005480649EB
:10032000091A891001EBD171491002D0034B03B1B6
:1003300018477047900B0010900B00100000000051
:1003400010B5064C237843B9FFF7DAFF044B13B11D
:100350000448AFF300800123237010BD900B001000
:100360000000000038E2000008B5044B1BB104494E
:100370000448AFF30080BDE80840CFE7000000006C
:10038000940B001038E20000134B002B08BF114BF8
:100390009D46A3F5803A00218B460F461148124A2C
:1003A000121A05F02FFB0D4B002B00D098470C4B79
:1003B000002B00D098470020002104000D000B48BE
:1003C00001F01BF905F054F92000290001F0B8FBF9
:1003D00001F010F900000800E07F001000000000AC
:1003E000311B0000900B0010701000103D4D0000FC
:1003F00003681B69184703689B69184703689B6A71
:1004000018474FF0FF307047112070477047704712
:100410007047D0F8983033F002030CBF20208020C2
:100420007047D0F8983033F002030CBF80202020B2
:100430007047C0E92712704710B5044603689B6FE8
:100440009847D4F890305B7890FBF3F010BD10B56E
:1004500004460368DB6F9847D4F890309B7890FB94
:10046000F3F010BD38B50368044601330D4604D1DE
:1004700024220549054802F0C9FA636815B1E2680B
:10048000136038BD2269FBE778CD0000B7CD0000CE
:10049000802910B515D8202A13D8D0F894409CB9DB
:1004A000D41001EBC411012402F00702084404FA3D
:1004B00002F290F9A41052B223B921EA020180F8A5
:1004C000A41010BD1143FAE7012BFAD1D41001EBAF
:1004D000C411084402F0070203FA02F290F8A430B3
:1004E0005A4080F8A420ECE72DE9F04F1E461F3B50
:1004F00087B0602B0446059192465AD8D0F89030C8
:1005000093F801801D7893F80290DB780193D0F87E
:100510009C3008EB030703689B6F9847874214D908
:100520004FF0000BD4F8A07023684F44C4F89CB07F
:10053000C4F8A070DB6F20469847D4F890309B78C1
:10054000C01A874228BFC4F8A0B0A6F120035646BF
:100550006B43D4F890200433D118D35C02910393F9
:10056000A6EB0A05A9451ED90122002705F00703BD
:1005700002FA03F30493029B03EBD505B84510D9A7
:10058000059B049AD91923682046D3F874B06B7878
:100590000137134018BF01233246D847019B1D4441
:1005A000ECE70136DCE7D4F89C30039A1344C4F836
:1005B0009C3007B0BDE8F08F10B50446034B0360D4
:1005C0007C33436002F076FD204610BDE8D1000088
:1005D000A0F10400F0E700BF10B50446FFF7ECFF00
:1005E000204601F081F9204610BDA0F10400F3E798
:1005F00038B504460D461822002105F003FA2046BE
:10060000294602F0ECF8204638BD000038B5044613
:100610000D46603000217834FFF724FF002120468A
:10062000FFF720FF054B9D60DA68D206FCD4204618
:10063000BDE838400121FFF715BF00BF00000340AF
:10064000F8B504460021FFF7E1FF10212046FFF72F
:10065000DDFF04F16006B0212046FFF7D7FF04F16B
:10066000780501213046FFF7FDFE00212846FFF7FF
:10067000F9FE5449544B01204B600223534A04F1C4
:10068000A4075362524B986018610F60514FCF60BE
:1006900040F681070F6158625969CF07FCD5D768CA
:1006A00017F01007FBD101212846FFF7DBFE394682
:1006B0002046FFF7ABFF10212046FFF7A7FFB1212F
:1006C0002046FFF7A3FF01213046FFF7CBFE394656
:1006D0002846FFF7C7FE01223D4B3A4904F59270C8
:1006E0009A601A6108603B48C86040F68100086162
:1006F0005A625A69D007FCD5344BDF6817F01007EF
:10070000FBD101212846FFF7ADFE39462046FFF711
:100710007DFF10212046FFF779FFB2212046FFF729
:1007200075FF01213046FFF79DFE39462846FFF749
:1007300099FE0122264B234904F5D2709A601A6172
:1007400008602448C86040F6810008615A625A690E
:10075000D107FCD51D4BDF6817F01007FBD1012135
:100760002846FFF77FFE20463946FFF74FFF204619
:100770001021FFF74BFF2046B321FFF747FF012170
:100780003046FFF76FFE39462846FFF76BFE012221
:100790000F4B0C490F4804F509749A601A610C60FC
:1007A000C86040F6810008615A625A69D207FCD5D8
:1007B000064AD368DB06FCD42846BDE8F840012190
:1007C000FFF750BE00410050080003400000034006
:1007D000004000508000008410B504464FF40072C1
:1007E0000021A43005F00EF92046BDE81040FFF7C7
:1007F00027BFF8B50A2904460E460368D0F8A020A2
:1008000014D10027D0F89010C0F89C708D78154452
:10081000C0F8A050DB6F9847D4F890309B78C01A8E
:10082000854201D3C4F8A0703046F8BD5D6D0B461B
:10083000D0F89C10A847D4F8A832002BF4D020465A
:10084000FFF7FEFEF0E7000070B5044600F130054A
:1008500086B003222846082102F040F800262846E8
:100860000125374902F05AF836496846FFF7C0FEBD
:1008700004F160000021FFF7F5FD04F1780001218B
:10088000FFF7F0FD00216846FFF7ECFD322002F093
:1008900084FA01216846FFF7E5FD052002F098FA89
:1008A0002046AE21FFF7B2FE2046A221FFF7AEFEA2
:1008B0002046A021FFF7AAFE2046C821FFF7A6FE8A
:1008C00020462221FFF7A2FE20462F21FFF79EFEA1
:1008D00020464021FFF79AFE2046AF21FFF796FE03
:1008E00020468121FFF792FE20461721FFF78EFE5A
:1008F0002046A621FFF78AFE134A3146D2F8C430BB
:1009000004F1A40043F00053C2F8C4300F4B4FF47D
:1009100000721D639D601D61C3F8086105F072F8E7
:100920002046FFF78DFE2368C4F8A8529B6E32461E
:10093000314620469847064BC4F8903006B070BD4B
:10094000002D310108C0092000C00F4000400050B8
:10095000A8C5000013B5044600F0EEF8144B154985
:1009600003F1080222604FF0FF32A433009263606B
:1009700004F13000104B02F01FF8104904F1480058
:10098000FFF736FE0E4904F16000FFF731FE0D4916
:1009900004F17800FFF72CFE002301222046C4E971
:1009A0002532C4F89C30FFF74FFF204602B010BD3F
:1009B000CCCC000009C0092007C0092008C00920CC
:1009C00006C0092012C0092037B5A3F11F05074B47
:1009D000046803EBC503019308230093D4F8904007
:1009E000D200C900A04703B030BD00BFCFCD00008A
:1009F00030B5013B0DB21944039B14B2013B1A44BC
:100A00008584C484058541858485C28530BDF7B55C
:100A10001D46089C07680094D7F8807006466C4312
:100A2000B8470025AC4207DD33680999D3F8843014
:100A3000304698470135F5E703B0F0BD036873B55C
:100A40000446D3F888509B6F984723680646DB6FAF
:100A5000204698470022E38B1146CDE90003334638
:100A60002046A84702B070BDF7B51D46089C074652
:100A7000009406686543D6F88060B0470024A5421C
:100A800009DD3B68099AD3F8843052F824103846BF
:100A900098470134F3E703B0F0BDF7B51F46089C53
:100AA0000546009406686743D6F88060B047002486
:100AB000A74210DD099AE310D25C04F007039A40C4
:100AC00013062B684CBFA98BE98BD3F884302846DA
:100AD00098470134ECE703B0F0BD08B503689B6F9D
:100AE0009847082390FBF3F008BD08B50368DB6F57
:100AF0009847082390FBF3F008BD38B50446036817
:100B0000B0F926205D6F0B46B0F92410A847A38CDE
:100B1000B4F92A2001331BB29A42A3840BDA238D45
:100B2000B4F92E20A384E38C01331BB29A42E384F0
:100B3000BCBFA38DE38438BD10B5044600F08EF829
:100B4000084B204603F10802A433226063604FF68D
:100B5000FF7100F00FF82046002100F00DF820464C
:100B600010BD00BFD8D000000183428370474FF012
:100B7000FF30704781837047C1837047002203684C
:100B800070B59B6E114604460025984723682046A1
:100B9000DB6D9847236806469B6D20469847704357
:100BA000A84205DD2021204602F096FA0135EDE746
:100BB00070BD0A2970B5036804460E46428B0CD1FD
:100BC0000021013295B29B6D018345839847854290
:100BD00001DB00236383304670BD5D6D0B46018BE6
:100BE000A847258B23680135ADB22583DB6D2046F0
:100BF00098478542EFDB0023658B2383013523680B
:100C0000ADB265839B6D2046E0E7000038B5046A0D
:100C100005460A463CB90E4B0E491B68D86804F0DD
:100C2000F5F8204638BD0C49204604F0CDF90028DF
:100C3000F8D0074B28461B689C682B68DB6D9847EB
:100C4000012203460021204605F000F80120E9E7D3
:100C5000DC01001084D10000DAD1000038B5044670
:100C60000D4602F0FFF90B4B23607C3363600023D9
:100C7000A36115B92562204638BD284605F0D6F98E
:100C8000023000F025FE2A462062034905F08AF86A
:100C9000F1E700BFE8D10000DCD1000008B509F0A1
:100CA000DFFE054B00220AF06FF80AF03BFABDE8C0
:100CB000084002F081B800BF00408F40054B1B6820
:100CC000934298BF00230A4688BF01230146024889
:100CD000FFF7DEBB800E0010D40B00102DE9F04FA3
:100CE00000244FF0000A4FF0000B3E4F8DB03B68E0
:100CF000A34273D9204609F0A3FE3B4B0025D3E95C
:100D0000002309F017FF0B4638490246D1E90001DC
:100D100009F058FDCDE90601354B1B68AB425BD9A4
:100D2000284609F08DFE334BD046D3E9002309F065
:100D300001FF314BD946D3E9002309F045FD0126D7
:100D40002E4BCDE908011B68CDE904ABCDE902AB20
:100D5000CDE900AB0B930B9BB34236D9DDE90423FD
:100D6000DDE9020109F030FD0022254B0AF054F9BB
:100D700058B3DDE900231046194609F025FD424627
:100D80004B4609F0D7FEDDE9062309F01DFDDDE93C
:100D9000042380468946DDE9020109F013FDDDE9FF
:100DA000082309F011FD02460B46CDE9000109F0C8
:100DB000C1FE4246CDE902014B464046494609F094
:100DC000B9FE0136CDE90401C5E728463246214681
:100DD000FFF774FF01359FE7013488E70DB0BDE8E8
:100DE000F08F00BFD00B0010C80B0010B00E001029
:100DF0009C0E0010C00B0010A80E0010800E0010FA
:100E0000000010402DE9F04F0026484B8BB018CB66
:100E1000CDE90434464BDFF8389118CBCDE90634E0
:100E2000D9F80030B3427DD90027424B1B68BB4242
:100E300076D9384609F004FE3F4B4FF00108D3E95C
:100E4000002309F077FE3D4BD3E9002309F0BCFCF9
:100E5000824630468B4609F0F3FD394BD3E9002337
:100E600009F068FE0B4637490246D1E9000109F056
:100E7000A9FC524604460D465B465046594609F0C9
:100E800059FE2B46CDE9000122462046294609F0AD
:100E900051FE2D4BCDE902011B680993099B434587
:100EA00037D9DDE90223DDE9000109F08DFC0022DC
:100EB000264B0AF0B1F860B352465B46504659469D
:100EC00009F082FC22462B4609F034FEDDE90623B8
:100ED00009F07AFCDDE9022304460D46DDE9000154
:100EE00009F070FCDDE9042309F06EFC02460B46B4
:100EF00082468B4609F01EFE2246CDE900012B46B4
:100F00002046294609F016FE08F10108CDE9020144
:100F1000C4E7384642463146FFF7D0FE013784E742
:100F200001367DE70BB0BDE8F08F00BFB80B0010B5
:100F3000B00B00109C0E0010C00B0010A80E00108B
:100F4000C80B0010B00E0010800E00100000104002
:100F5000D00B00102DE9F04F5C4E89B030605C483A
:100F60005C4E01705C48336002605C4B129A5C4FCF
:100F70001A605C4BDDE91445C3E90045DDE9162341
:100F8000DDE91C89C7E90023DDE91823564FC7E9CD
:100F90000023564B9DF868201A70554BC3E9008911
:100FA000DDE91E89534BC3E9008919B18023036031
:100FB0001D2333602046294602F012FAD7E9004586
:100FC00002460B4600204FF0804109F0DDFE064648
:100FD0000F4602460B462046294609F0F3FB3246EF
:100FE000CDE904013B462046294609F0EDFB3A4B8A
:100FF000CDE90601186809F023FD364BCDE9000163
:10100000186809F01DFDDDE90423CDE90201DDE9E1
:10101000060109F0D7FBDDE9002309F08BFDDDE9CE
:10102000022309F0B1FE0022334B09F083FD2C4B63
:101030000646D3E900450F4602460B4620462946A0
:1010400009F0C0FB82468B462C4B3246C3E900AB0D
:1010500020463B46294609F0B7FB80468946284B87
:10106000C3E90089DDE904231046194609F0ACFB09
:1010700006460F46234BC3E90067DDE90623104609
:10108000194609F0A1FB04460D461F4B5246C3E921
:10109000004540465B46494609F094FBDDE90023E4
:1010A00009F072FE194B3246C3E900013B46204667
:1010B000294609F087FBDDE9022309F065FE144BA0
:1010C000C3E9000109B0BDE8F08F00BF840E001035
:1010D000AC0B0010D00B00109C0E0010800E001006
:1010E000900E0010C00E0010880E0010980E001018
:1010F000B80B0010B00B00100000E03FA80E00106D
:10110000A00E0010B80E0010B00E0010C00B0010A2
:10111000C80B00100148FFF793BA00BFD40B0010B2
:101120002DE9F04F0FF2B00BDBE900AB04460D46A2
:101130004FF000084FF0000995B0119200260027EB
:1011400027A3D3E900233046394609F0F3FC0246D1
:101150000B46CDE9122302F02DF8DDE91223CDE98B
:101160000E011046194602F0F3F852465B4609F0AC
:10117000E1FC5246CDE90C01DDE90E015B4609F0C8
:10118000D9FC012300220893174BCDE90A01CDE9D0
:1011900002230F232A46214614480093CDE90689ED
:1011A000119BCDE90489FFF7D5FEFFF72BFEFFF772
:1011B000B1FF2098FFF772FDDDE91E233046394666
:1011C00009F002FB00224FF0804306460F4609F06B
:1011D0002DFF0028B2D0B3E708AC1C5A643BE93FAE
:1011E000182D4454FB2109400000F03F70D200004C
:1011F0002DE9F04700240025804689469246264680
:101200002F468EB0002300220893194B2046CDE9CB
:10121000042329460022174BCDE90245CDE90C678E
:10122000CDE90A67CDE9066709F084FC09F05AFFA9
:1012300053464A46414600900F48FFF78BFEFFF7A2
:101240004DFDFFF767FF1898FFF728FDDDE916232E
:101250002046294609F0B8FA0022084B04460D46FC
:1012600009F0E4FE0028CDD10EB0BDE8F08700BF44
:101270000000F8BF00002E4070D2000000001440B3
:101280001FB5002302930CA3D3E90023CDE900236B
:101290004FF0FF3201201146FFF7AAFF08A3D3E960
:1012A00000230120CDE900234FF0FF3202901146C8
:1012B000FFF736FFAFF300809A9999999999B93F52
:1012C0007B14AE47E17A843F10B5064C06492046B0
:1012D000FFF740FB2046BDE81040044A044900F0F7
:1012E00087B900BFD40B00106CD20000C8000010FA
:1012F000B9050000431C10B5044604D11522064967
:10130000064801F083FB2046002100F021FC01206B
:1013100004F01F04A04010BD77D20000BCCD000037
:1013200038B505464B1C0C4629600FD00846FFF720
:10133000E1FF24F01F0404F11803EB6004F11C0327
:101340002B6104F1140368606B61AC6038BD006808
:1013500000F024BC38B50368044601330D4604D1BF
:101360002C220A490A4801F051FB15B1012D07D082
:1013700038BDA2686168136823EA0103136038BDB1
:10138000A268616813680B43F8E700BF77D20000DA
:10139000B7CD000038B50368044601330D4604D1CB
:1013A00024220549054801F031FB636815B1E26864
:1013B000136038BD2269FBE7E0D20000B7CD000022
:1013C00010B586B001F00AFD1449684601F007FA2D
:1013D000042401216846FFF7DDFF962001F0F8FCA8
:1013E00000216846FFF7D6FF962001F0F1FC013C92
:1013F000EFD1042401216846FFF7CCFF4FF4C870F9
:1014000001F0E6FC00216846FFF7C4FF4FF4C87006
:1014100001F0DEFC013CEDD1DAE700BF32C009206B
:1014200070B50D460446A0B001F0D8FC2B4622460C
:101430008021684607F01AFC051E03DC01F0E4FC7D
:1014400020B070BD094B1B6823B9094A09490A48F5
:1014500000F0B8FE0024084E1DF804103046013498
:1014600000F014FEA542F7D1E8E700BFE40E00103B
:1014700003C0092002C00920641000100FB407B592
:1014800004A951F8040B0191FFF7CAFF03B05DF8FE
:1014900004EB04B0704700207047036801221B6909
:1014A000002118470022036811461B6918476FF096
:1014B0001C0070476FF01500704701207047002036
:1014C00070477047F8B515460C46064E8F18BC425B
:1014D00005D014F8011B304600F0D8FDF7E7284688
:1014E000F8BD00BF6410001038B58DB215F00104CE
:1014F00005D0084800F09EFD041C18BF0124EB062F
:1015000005D5044800F09CFD08B144F010042046C5
:1015100038BD00BF6410001010B5044604F04CF94B
:10152000204610BD10B50C462AB1044800F068FDF5
:101530002070012010BD104610BD00BF64100010C7
:1015400038B51D46074B04460360074B1B6833B98B
:10155000064800F037FE2946044800F01BFC2046F0
:1015600038BD00BFDCD30000E40E00106410001092
:10157000002070470020704708B5012000F03AF8BD
:101580000C4A10B513681844EFF30881884205D35C
:101590000C22094B4FF0FF301A6010BD07490C6850
:1015A00024B10749096821448842F1D210601846E5
:1015B00010BD00BFCC0100106C100010D80E001040
:1015C000DC0E0010094C08B523680546986803F046
:1015D000CBFA2368D86803F0C7FA01F03FFA08B1E4
:1015E00001F08EFD0DB1FFF7EBFEFEE7DC01001010
:1015F0000120704708B5FFF7E5FF01207047002183
:1016000004F01CBB7047704708B5FFF7FBFF08BD2F
:1016100008B5FFF7F8FF08BD10B50378044603F0DE
:101620000303012B0CD02BB140F20F5205490648A1
:1016300001F0ECF92378012043F00203237010BD80
:10164000002010BD47D400009ED4000010B50378E0
:10165000044603F00303022B05D040F2175205495C
:10166000054801F0D3F9237823F0030343F0010385
:10167000237010BD47D40000C4D400003F2870B5CB
:1016800004462FDC184D55F820305A1C13D102287F
:1016900011DCFFF76FFF034658B92046FFF768FFDC
:1016A000034630B9114E3378BFF35B8FDB0704D5A7
:1016B0000F4B45F82430184670BD3046FFF7ACFF9D
:1016C0000028F5D04FF416530A4A0B490848FFF793
:1016D00037FF3046FFF7BAFF084A09490448FFF7C9
:1016E00087FFE5E70023E6E7CC000010C80E0010F6
:1016F000D40E001003C0092002C00920C800001049
:10170000C314000038B505460024FFF7B7FF0B4BA4
:1017100043F8254030B903F011F9092303604FF075
:10172000FF3038BD03685B699847051E04DA03F093
:1017300005F96D420560F2E7204638BDCC00001087
:10174000FFF7E0BF38B50C461546FFF797FF38B9ED
:1017500003F0F4F8092303604FF0FF34204638BD4E
:1017600003682146DB682A469847041EF6DA03F030
:10177000E5F864420460EFE708B5131E06DA03F0EB
:10178000DDF8162303604FF0FF3008BD04D0FFF7EB
:10179000D9FF40EAE07008BD184608BD38B50C46D0
:1017A0001546FFF76BFF38B903F0C8F8092303604B
:1017B0004FF0FF34204638BD036821469B682A4617
:1017C0009847041EF6DA03F0B9F864420460EFE7C4
:1017D000002A08B503DBBDE80840FFF7DFBF03F0D0
:1017E000ADF8162303604FF0FF3008BD10B5FFF7CA
:1017F00045FF044628B903F0A1F8092303602046F9
:1018000010BD0368DB699847041EF8DA03F096F808
:10181000644204600024F2E71FB504220C46402312
:101820000DEB020101900DF109008DF8083004F074
:1018300011F8214602A803F0E1FA044630B10198FC
:10184000FFF7D4FF10B12046FFF7D9FE204604B0C1
:1018500010BDFFF7CBBF38B50C461546FFF70EFF9E
:1018600038B903F06BF8092303604FF0FF342046CA
:1018700038BD036821461B692A469847041EF6DADC
:1018800003F05CF864420460EFE7FFF7E4BF38B5AB
:101890000D46FFF7F3FE044630B903F04FF8092375
:1018A00003604FF0FF3038BD0368DB6998470028BC
:1018B00014BF4FF400534FF400436B60236820467D
:1018C0009B6A98472861002038BDFFF7E0BF000001
:1018D00010B503F069FF044610B9024801F0A8F8FA
:1018E000204610BD28D4000003F066BF00487047B2
:1018F00020D40000034653F8042B10B5044602B967
:10190000036022689A4204D05D220349034801F033
:101910007DF8206810BD00BF5ED30000BDD300007D
:1019200010B504460948FFF7E5FF00231946084AA9
:1019300052F82300A04208BF42F823100133402B85
:10194000F6D10248FFF7D6FF10BD00BFCC0E001045
:10195000CC00001010B503240E48FFF7CBFF0E4B50
:1019600053F824206AB10134402CF9D102F0E6FF8B
:10197000182303600748FFF7BDFF4FF0FF342046F0
:1019800010BD4FF0FF32034843F82420FFF7B2FFA9
:10199000F5E700BFCC0E0010CC00001010B50446D7
:1019A000FFF7D8FF0028A4BF014B43F8204010BD2B
:1019B000CC00001070B506460C46FFF7EFFF054659
:1019C00090B12146FFF728FF044630B9074B53F882
:1019D0002520964203D143F82500204670BD02F031
:1019E000ADFF09230360F8E70446F6E7CC000010DA
:1019F0000EB42DE9F04185B00546FFF7ABFF041E9C
:101A000013DB0023294602A8019301F00BFA02A878
:101A100001F05AFA1B4D064668B902F08FFF1323F6
:101A2000036045F824604FF0FF34204605B0BDE860
:101A3000F04103B0704702A801F034FA074602A84B
:101A400037B101F038FA0190019B45F82430ECE7FA
:101A500001F01FFA06460028DFD0036802A8D3F879
:101A6000088001F00BFA0B9B024601A93046C047E3
:101A700006460028E8D002F061FF7642066045F88D
:101A80002470D0E7CC00001073B50E461849054607
:101A900004F0EEF9044620B9FFF7F0FD204602B04D
:101AA00070BD1449284604F0E3F920B90120FFF77E
:101AB000E5FD0124F2E71049284604F0D9F920B9E0
:101AC0000220FFF7DBFD0224E8E72B78402B07D14B
:101AD0000422691C0DEB020003F0BCFE019CDDE753
:101AE00026F400412846FFF783FF0446D6E700BFEF
:101AF0000BD5000012D5000003D5000070477047D9
:101B000070470000074B10B59A6807490748043A28
:101B100052F8044F41F8044F8142F9D14FF08052FE
:101B20009A6010BD00ED00E0FCFFFF0FC000001048
:101B300008B5FFF7E7FFFFF7E2FFFFF7E1FF08BD9A
:101B400008B5FFF7DBFFBDE80840FFF799BB0000D1
:101B500038B5431C04460D4604D115220D490E48E4
:101B600000F054FF04F16040A0F51C20420003097E
:101B700003209B0003F1804303F53033196802F022
:101B80001E02904021EA00011960196895400D433A
:101B90001D6038BD1AD50000BCCD000038B5431C0F
:101BA00005460C4604D120221749184800F02EFFA4
:101BB00005F16040A0F51C2043099B0003F1804320
:101BC00003F530339D6EC4F3800100F01F0201FA6B
:101BD00002F225EA02059D669D6E2A439A6691B936
:101BE0004200030903209B0003F1804303F53033D7
:101BF000196C02F01E02904021EA00011964196C70
:101C000094400C431C6438BD1AD50000BCCD0000C4
:101C100030B52A4B04689C4224D006DCA3F58043EF
:101C20009C420CD000231D460BE0254B9C421CD04F
:101C300003F580439C42F5D1224B082501E00525A0
:101C4000214BAAB10122606802FA01F101436160EF
:101C50001E4905F110008968AA4041F820301C4B4C
:101C60001A6030BD1B4B0625EBE71B4B0725E8E749
:101C700001290AD042683820184B00FB023292F842
:101C8000363092F83520D34216D1012303FA01F2FF
:101C9000B1FA81F16068490920EA02006060626877
:101CA00003FA01F1114207D1094AAB40C2F8803072
:101CB000BFF34F8FBFF36F8F30BD00BF00000140F7
:101CC00000800940811D0000451D000000ED00E07E
:101CD00000E100E0591D00006D1D0000E80E00103D
:101CE000012810B408D0022808D010BC70475068F2
:101CF00020F00100506010E003460EE038230F484A
:101D000003FB01035868013006D018699C68046021
:101D100093F83630002BEAD000233822514307488D
:101D2000421840580028E0D01BB992F83620002A0B
:101D3000DBD0034A1946126810BC1047E80E0010A9
:101D4000E00E0010034A00219068C0F34200FFF744
:101D5000C7BF00BF00C00040034A01219068C0F324
:101D60004200FFF7BDBF00BF00000140034A02214F
:101D70009068C0F34200FFF7B3BF00BF0080094086
:101D8000034A03219068C0F34200FFF7A9BF00BFD8
:101D900000C009402DE9F04F754A0E4601688DB02C
:101DA0009142059004DD9B227249734800F02EFE9B
:101DB000059B72491A688A4200F09C8079DCA1F583
:101DC00080418A4200F088806D4AD2F8009032014A
:101DD000B9FBF2F5ACB202FB1595002D00F0BF8007
:101DE0004FEA490308934FEA89030793079A0127AB
:101DF0000392002233462146DDF820B0CDF8109042
:101E00000696029701921A464FF000085FFA87FA89
:101E1000BBF1000FABBF0398BBFBF2F4B0FBF2F4D5
:101E20002409A8BF64090134C4F34F045FFA88F59C
:101E3000002C00F09780B8F1000F02D0012C08BFF1
:101E4000022407EB080060430A93049BC000B3FB25
:101E5000F0F00130C6EB50000B92099102F06AFDE0
:101E6000069B099998420B9A0A9B62DA86425BD1DB
:101E70000F2F07D12146CDF808A001950C46DDF8BB
:101E800008A0019D059B45EA0A151B68EDB21A7B67
:101E900042F080021A73C4F30722E4B21A711C7074
:101EA00083F828501A7B02F07F021A730DB0BDE848
:101EB000F08F34498A4229D001F580418A4283D18A
:101EC000314AD2F8AC1121F44021C2F8AC11D2F859
:101ED000AC1141F4802124E02B4AD2F8A81121F062
:101EE000C001C2F8A811D2F8A81141F04001C2F80F
:101EF000A81169E7244AD2F8A81121F44071C2F868
:101F0000A811D2F8A81141F48071F0E71E4AD2F866
:101F1000AC1121F44031C2F8AC11D2F8AC1141F44B
:101F20008031C2F8AC114FE721460690CDF808A0E9
:101F3000019508F101085FFA88F050453244FFF43A
:101F400067AF0F2F9AD0049A07984A440492089AD0
:101F500001379344039A33440244039253E74FF00A
:101F6000010A8FE7B8F1000F0CBF0124022468E7D3
:101F700000C00940A8D6000013D7000000000140AF
:101F8000D00100100080094000C00F40F8B55E1E6F
:101F9000012E07460C46154604D9FB221349144866
:101FA00000F034FD053C032C04D9FC220F491148F4
:101FB00000F02CFD042D04D9FE220C490E4800F03F
:101FC00025FD013DEDB2032D8BBF002301221A46F2
:101FD0000A4B44EA860498BF5B5744EAC204396856
:101FE00044EA0314E4B20C73F8BD00BFA8D60000A5
:101FF0002CD7000051D7000074D7000081D5000015
:1020000010B50268137DDB07FCD538244368084807
:10201000117804FB03035868C9B2013006D058692F
:102020009B680360536843F001035360084610BD8A
:10203000E80E00100368187D00F0010070470000F2
:102040003821114A436801FB0323DA69013209D0C0
:102050001A6B1B6A12681A4214D10368187DC0F308
:10206000801070470268127D920604D5002201207C
:1020700083F83420704793F834000F288CBF002079
:102080000120704700207047E80E001038B5044664
:102090000D462046FFF7D4FF0028FAD038212368E8
:1020A000EDB21D706368044A01FB032393F83420EA
:1020B000013283F8342038BDE80E00102DE9F84FC6
:1020C0009A463C4C03680546A34218BF0024894643
:1020D000904647681CB1237C03F03F0323743823E8
:1020E0004FF0FF32344E284603FB0763DA615A6033
:1020F000002283F835201146FFF78AFDB9F1000F61
:1021000055D02E49404600F09BFB2D498346504652
:1021100000F096FBA9F10203012B1BD8BAF1FF3F97
:102120000BD0244B98420DD164B1237C244943F059
:1021300080032374504600F055FBB9F1030F0CD017
:10214000BDE8F88F382000FB076051461C3000F0D6
:102150002CFBF2E7B9F1010F29D1B8F1FF3F01D112
:10216000BDE8F88F07222B681A72124B9B450AD1E3
:102170004CB1237C404643F0400323740F49BDE833
:10218000F84F00F02FBB382404FB076041460022C3
:10219000043000F00DFB01226B68284604FB036647
:1021A00086F835200021BDE8F84FFFF731BDBDE8C6
:1021B000F88F00BF00000140E80E0010ACD5000011
:1021C00088D500002DE9F8430F4605464D493846AD
:1021D000164600F041FB4C490446304600F03CFBFB
:1021E0000146204600F01AFB411C044604D15C2243
:1021F0004649474800F00AFC464B2C609C4263D09D
:102200004DD8A3F580439C4256D04FF001094FF0C2
:10221000000884F808904FF416512846C4F804804A
:10222000FFF7B8FD42464B4608212846FFF7AEFEB1
:102230003449384600F0D6FA3349304600F0D2FA35
:102240007A1C03D041463846FFF7A8FC731C03D024
:1022500000213046FFF7A2FC2E4B9C424CD03FD8C9
:10226000A3F580439C4244D038216A682A4B284613
:1022700001FB02324FF0FF3300215360D3611A4655
:10228000FFF71CFF254B9C423AD10122244B2946E3
:102290001A6024480822BDE8F84303F0DBBA224B59
:1022A0009C4217D003F580439C42AED11F4AD2F81E
:1022B000C43043F0007304E01C4AD2F8C43043F049
:1022C0000803C2F8C430A0E7184AD2F8C43043F07B
:1022D0001003F6E7154AD2F8C43043F08073F0E7F4
:1022E000114B9C420AD003F580439C42BCD103238E
:1022F00000E000236B60B7E70123FBE70223F9E767
:10230000BDE8F8833CD60000D0D50000A8D6000078
:10231000F8D7000000000140E80E001000C00040A7
:10232000E40E0010641000100080094000C00F404F
:102330002DE9F74F0F4680462E49384616461D4672
:102340000C9C00F089FA2C498146304600F084FA52
:102350002A490190284600F07FFA29498246204602
:1023600000F07AFA019B83461946484600F056FA77
:1023700059468146504600F051FA0146484600F061
:102380004DFAC8F80000013004D144221D491E480E
:1023900000F03CFBD8F800301C4A934220D002F5F4
:1023A000B022934207D102F5E822D2F8C43043F4B8
:1023B0000013C2F8C4300F49384600F013FA0E4932
:1023C000304600F00FFA0D49284600F00BFA631C66
:1023D0000CD020460A4903B0BDE8F04F00F002BA25
:1023E0000B4AD2F8C43043F48063E2E703B0BDE89F
:1023F000F08F00BF44D8000008D8000080D800004B
:10240000BCD8000059D90000C1D900000000034029
:1024100000C00F40F8B5144602681D4653680746D1
:1024200023F0020353600B1F0C2B0E4601D8032C24
:1024300004D959221049114800F0E8FA3868E2013D
:102440000368D2B2013E3243C4F3400423F0FF03D9
:10245000002D42EA841242EA030214BF042300233F
:102460000260426822F00D0213434360436843F068
:1024700002034360F8BD00BF59D90000F8D800003E
:102480002DE9F843036806465A680D4622F0020219
:102490005A602C4A93423DD002F5B02293420CD1AF
:1024A000294BD3F8AC2122F44062C3F8AC21D3F815
:1024B000AC2142F48062C3F8AC2102244FF07C5876
:1024C000224B1F68B7FBF4F008F036FF8146284620
:1024D00008F032FF0146484609F036F8414608F058
:1024E00077FE08F0CFFA00F0AFFE08F0D3FDFF282A
:1024F0001EDC336801381C611A6822F47F421A60BE
:102500001A6842EA002018605A6842F002025A60D3
:10251000BDE8F8830C4BD3F8A82122F44012C3F88D
:10252000A821D3F8A82142F48012C3F8A821C4E757
:102530000234B4F5807FC5D10548BDE8F84300F00A
:1025400077BA00BF0000034000C00F40D001001068
:1025500032D900000368DA689207FCD599607047A9
:1025600010B5FFF7F7FF0368DA685207FCD59868E3
:1025700010BD2DE9F84F0A9F804697423D46894697
:1025800016469A46B8BF154600249DF82CB0AC42BA
:1025900002DB2846BDE8F88FB442B4BF19F8041036
:1025A00059464046FFF7DCFFBC42B8BF0AF80400BA
:1025B0000134ECE70649074A074B9A42BEBF51F87F
:1025C000040B42F8040BF8E704488047044800472E
:1025D00044E20000C8000010900B0010F925000034
:1025E00089030000FEE7FEE7FEE7FEE7FEE7FEE701
:1025F000FEE7FEE7FEE7FEE72022264BC3F8A02118
:10260000D3F8A021920603D5D3F8A0215006FBD51C
:102610000222C3F8042100220120C3F8A821C3F834
:10262000AC210B22C3F80C01AA21C3F88420552247
:10263000C3F88C10C3F88C20C3F88000C3F88C104A
:10264000C3F88C20134B1A46D3F888104901FBD5E8
:102650000321C3F88010AA21C3F88C105521C3F8B8
:102660008C10D2F8883013F0407FFAD00523C2F8DE
:102670000831094BC2F8C4300023C2F8C8311368CE
:1026800023F4704323F03A0343F4405343F03A03F6
:102690001360704700C00F40DE872804104B186895
:1026A000E0B901210F4A1960D2F8C43043F40003A5
:1026B000C2F8C430A2F5D022106702200A4B1B6872
:1026C00050600A48B3FBF0F3013BD360084B516004
:1026D0009B68084A1A651022074B1A60704700BFB2
:1026E000C80F001000C00F40D001001000093D00CD
:1026F00000ED00E0F929000000E100E008B5044B1E
:102700001B680BB9FFF7CAFF024B986808BD00BFF2
:10271000C80F001000400940034B98615A6942F00D
:1027200001025A61704700BF004009401022024B6D
:10273000C3F80021704700BF00E100E0024A53697E
:1027400023F0010353617047004009400122014B0F
:102750001A6070470040094038B5036804460133E9
:102760000D4604D124220549054800F04FF963685D
:1027700015B1E268136038BD2269FBE7E0D20000C2
:10278000B7CD000070B50E4604461546FEF7C8FDED
:10279000013609D020460021FEF7DCFD29462046FF
:1027A000BDE87040FEF7D3BD70BD0322FFF7EABF5E
:1027B00070B50E4604461546FEF7B2FD01360DD043
:1027C00029462046FFF7C8FF20460121FEF7C2FD3B
:1027D0002046BDE870400221FEF7B9BD70BD002261
:1027E000FFF7E6BF10B5044601300DD110BD9C4285
:1027F00009D120468968FFF7ABF92046BDE81040B3
:102800000221FFF7CBB90C310B685A1CEFD10248FB
:10281000BDE8104000F00CB906DA0000884208B5A7
:1028200008D0431C06D0013106D0044800F000F95E
:102830004FF0FF31084608BD0146FBE7D5D900003F
:102840000B685A1C01D118467047834201D1486871
:1028500070470C31F4E70000421C10B5044607D065
:10286000FFF7EEFF431C044602D1024800F0E0F8F7
:10287000204610BDE6D9000070470000064B1968DD
:102880001A1D01B91A601B68934204D05D220349E6
:10289000034800F0BBB87047CC0F00105ED30000B7
:1028A000BDD3000010B50446FFF71EF8204610BD4A
:1028B00070B5094D04462B6883420BD0061DC268D3
:1028C000816800233046FFF7A5FD21693046FFF7F8
:1028D000D7FD2C6070BD00BFD40F001070B504464A
:1028E0000D46164603689B6898470B4BA5601B680E
:1028F000E6609C420BD1002332462946201DFFF79B
:1029000089FD23682046BDE87040DB6818472046F3
:10291000FFF7CEFFF5E700BFD40F001070B50446F7
:102920000D4603689B689847094B25611B689C42CC
:1029300009D12946201DFFF7A3FD23682046BDE8E5
:102940007040DB6818472046FFF7B2FFF5E700BF8D
:10295000D40F001038B504460D4603689B689847AD
:102960002046FFF7A5FF2946201DFFF7F9FD054684
:1029700023682046DB689847284638BDF7B50446EB
:102980000D4616461F4603689B6898472046FFF78A
:102990008FFF237D29460193089B32460093201D1B
:1029A0003B46FFF7E6FD054623682046DB6898476F
:1029B000284603B0F0BD000037B504460A48082594
:1029C000206000206060E0600848A5602061FF2072
:1029D000207506980090201DFFF7AAFC2046FFF7FF
:1029E00067FF204603B030BD20DA000040420F00F0
:1029F0000048704738DA0000024B1B680BB10248F0
:102A000018477047D401001038DA000070B504464A
:102A10000D46164600F0E2F933462A4621460348A1
:102A2000FEF72CFDBDE87040FEF7CABC5CDA000082
:102A30000FB413B5084B1A784AB9012405A90498B4
:102A40001C700191FEF7ECFC2046FEF7D3FD02B0AE
:102A5000BDE8104004B070471810001000F05CBBD7
:102A60002DE9F34790E8080404465B6898476368DB
:102A70001B6A984235D0DAF82040DAF80C30041B93
:102A80001C40DAF808202F4B26469A424FF00007E8
:102A9000CAF820001FD0DAE90A01B2F5004FA4FB02
:102AA0000345CDE9000127D1DDE9002347F6FF709A
:102AB0000021E60B0440121946EA45464FEAD53795
:102AC00005EA01056B41994208BF904214461D4634
:102AD0000AD3CAE90A45DAE90C23B6185F41CAE904
:102AE0000C6702B0BDE8F087013647F10007B2F588
:102AF000004443F1FF35ECE74FF0000920464B4618
:102B00002946904608F0E2FD424606460F464B46EF
:102B10002046294608F0DAFDDDE900018018594118
:102B2000494508BF404502460B4602D2CAE90A237E
:102B3000D1E7013647F10007B0EB080261EB09036A
:102B4000F4E700BF40420F00824206D98A420BD907
:102B5000884294BF002001207047884206D98A42EB
:102B60008CBF002001207047012070470020704773
:102B70002DE9F0478146D0F80480FFF771FFD9F8BE
:102B80000450D9F800A0696800294ED0D5E90C237B
:102B9000D1E90067BB4208BFB24204D3DAF814306F
:102BA000BDE8F0471847B61A67EB0307D5E90623D7
:102BB000BB4208BFB2422C6906D3AB68224A93429B
:102BC0001DD1B44228BF34462A6AD8F820301444B4
:102BD000EA681440A342E1D0DAF810302046984762
:102BE000D9F800305B68984722460146D8F82000A3
:102BF000FFF7AAFF30B3D9F800305B69D0E7B3F52F
:102C0000004F0BD10023F9030F4AF00341EA56416C
:102C100008F05CFD844228BF0446D5E7A3FB06010B
:102C2000094A03FB07110023F2E7D8F81030D8F85F
:102C30002000D8F80C2018441040DAF81030BDE815
:102C4000F0471847BDE8F08740420F002DE9F74FE5
:102C5000044603681B68984723689B699847D0F827
:102C600000B00546BBF1000F06D1292229492A48A8
:102C7000FFF7CCFEDFF8A4B0D5F804A0AAF1040356
:102C80001C2B06D92F2223492348FFF7BFFE4FF004
:102C9000200A0725AAF104039D4000231BF1FF3001
:102CA0001E4E43F1FF315A46C6FB050108F00EFDEA
:102CB0000023D4F804800F46C8F80030C8F8043068
:102CC000236806465B6898474FF00009C8F8200063
:102CD0004FF0000863685246C3E90A89C3F808B098
:102CE00001200021019307F05DFD0122019B0138C5
:102CF000D8601D612046C3E90667C3E90C8983F8E3
:102D00003820FFF7ADFE204603B0BDE8F04FFFF7D7
:102D10002FBF00BF8DDA0000C0DB000040420F0073
:102D200070B5044600F05AF82368DB68984763687A
:102D30005B68A3B12046FFF793FE65686E68D5E92E
:102D40000C01D6E90023994208BF904207D3F368EB
:102D50006B602B68002BEAD0B0689847E7E7204605
:102D6000FFF706FFBDE8704000F04EB8436810B5AD
:102D700093F8383004460BB9FFF768FF00F02EF8DF
:102D80002046FFF76DFE00F03FF86368D3E90C01C1
:102D900010BD08B5FFF7EAFF08BD70B50446FFF7A0
:102DA00027FE0646FFF7F5FF05463046FFF7F1FF21
:102DB000401BA042F9D370BD08B5044908F010FBD0
:102DC00008F05EFCBDE80840FFF7E7BF0024744947
:102DD0004FF47A735843FFF7E0BF000010B5074C7B
:102DE0002368013304D1552205490648FFF70EFE3A
:102DF00000F09AF923680133236010BD1C10001005
:102E0000DFDA000034DB0000054B1A6832B11A68C3
:102E1000013A1A601B680BB900F098B9704700BFFF
:102E20001C10001070B50E46002504460560456074
:102E30000F49304603F072F90644266023681A7879
:102E40002F2A0ED10133236025B9282209490A48C7
:102E5000FFF7DCFD2946304600F08CF86060204624
:102E600070BD002AF0D0013301352360E6E700BFD2
:102E700065DB000067DB0000B9DB0000006870471D
:102E8000406808B520B100F024F8431E584258416C
:102E900008BD10B50446FFF7F3FF10B1606800B13C
:102EA000043810BD406808B520B100F012F8B0FA3F
:102EB00080F0400908BD10B50446FFF7F3FF10B1DC
:102EC000606800B1043810BD4068003018BF0120B0
:102ED0007047007B7047000038B50B4B0446036019
:102EE00000230D464360A16002730848FEF702FD0F
:102EF00045B1074B1A681C6062600448FEF7FAFC93
:102F0000204638BD6560F8E7CCDB000024100010D7
:102F10002010001010B504460E4B03600E48FEF75B
:102F2000E9FCA3682BB10D4A13689C420CD163687D
:102F300013600948FEF7DEFC237B13B9201FFEF760
:102F4000EFFC204610BD13465A689442FBD16268DC
:102F50005A60EEE7CCDB00002410001020100010B7
:102F600010B50446FFF7D6FF2046FEF7BDFC20460D
:102F700010BD000070B506460C480D46FEF7BAFCC1
:102F80000B4B1C685CB1A06870B12A46314603F057
:102F90007BF848B9A06803F049F8854204D103489A
:102FA000FEF7A8FC204670BD6468EBE72410001013
:102FB0002010001000207047F8B50E460368044644
:102FC000DB6C8F1835469847BD4207D0236815F84B
:102FD000011B5B6C204698470130F5D123682046E1
:102FE0001B6D9847A81BF8BDF8B50E46036804464C
:102FF000DB6C8F1835469847BD4208D023682046C1
:103000009B6C9847431C02D005F8010BF4E723683A
:1030100020461B6D9847A81BF8BD002070477047DD
:10302000002070470020704710B50446044B036031
:103030004C3340F8043FFFF76DFF204610BD00BF42
:10304000DCDB0000A0F10400EEE700BF10B5044691
:10305000FFF7EAFF2046FEF747FC204610BDA0F12F
:103060000400F3E710B504460E4B002240F8043B81
:10307000FFF732FF0C4B0D4923605C336360002384
:1030800020466361FEF796FC606118B1FEF7B7FA5F
:10309000204610BD01F052FC01680548FFF7C8FC4E
:1030A000F6E700BF40DD00005CDC000030DC000023
:1030B00033DC000010B50446064B03F1080264330C
:1030C00002604360406901F083FC2046FFF7ACFFDB
:1030D000204610BD54DC000038B504460D46036898
:1030E000DB6C9847606901F03FFD6169284601F09B
:1030F000A1FE0546236820461B6D9847284638BD2B
:1031000030B585B06D46182420462946ABBE04462E
:10311000204605B030BD0000024B186800F00100E9
:10312000704700BFF0ED00E0EFF31083DB4372B6B1
:10313000044A117829B9044903F001030B700123F3
:10314000137070472D1000102C10001008B5EFF30D
:103150001083DB0704D4362205490648FFF756FCE6
:103160000022054B1A70054B1B7803B162B608BDEF
:10317000C0DC00001CDD00002D1000102C10001021
:10318000036870B51B690122002104469847051E9B
:103190000DDB236802221B69002120469847064662
:1031A000236829461B690022204698473546284651
:1031B00070BD000030B5214A21F00043934287B032
:1031C0001BDD1F4A934205DD02460B4607F0FAFA63
:1031D00007B030BD02AA00F003FB00F00300012895
:1031E00011D0022820D0C0B1DDE90423DDE90201BD
:1031F0000124009401F060FAEAE70022002300F0C5
:103200000FFD07B030BD0090DDE90423DDE90201C8
:1032100001F052FA01F10041DAE7DDE90423DDE9CA
:10322000020100F0FDFCD3E7DDE90423DDE9020142
:1032300000F0F6FC01F10041CAE700BFFB21E93FC5
:10324000FFFFEF7F00000000C1F30A522DE9F843B1
:10325000A2F2FF36132E0B460D460446884607465B
:103260001DDC002E3DDB384A42FA06F901EA09026C
:10327000024319D032A3D3E9002307F0A5FA0022B4
:10328000002307F0E7FED0B3002D04DA4FF48013DB
:1032900043FA06F6B04428EA090500272FE0332E4A
:1032A00006DDB6F5806F2FD019462046BDE8F883BD
:1032B0004FF0FF39A2F2134229FA02F919EA000F7E
:1032C000F2D01FA3D3E9002307F07EFA00220023E7
:1032D00007F0C0FE98B1002D24DB27EA0907454618
:1032E0000DE017A3D3E9002307F06EFA00220023B4
:1032F00007F0B0FE18B1002D0BDB00273D463C4621
:1033000029462046BDE8F883024607F05DFA0446E8
:10331000CBE725F000430D4A1F43002F18BF154689
:103320000027ECE7142E08D00123C6F1340603FA77
:1033300006F6371928BF9844CFE705F10108CCE716
:103340009C7500883CE4377EFFFF0F000000F0BF53
:1033500030B5214A21F00043934287B01BDD1F4A5C
:10336000934205DD02460B4607F02CFA07B030BD4C
:1033700002AA00F035FA00F00300012813D0022859
:103380001FD0DDE90423A8B1DDE9020100F048FC0B
:1033900001F10041EAE7002400220023009401F03B
:1033A0008BF907B030BDDDE90423DDE9020100F04F
:1033B00037FCDBE70124DDE90201009401F07CF930
:1033C000D4E70124DDE90423DDE90201009401F0E2
:1033D00073F901F10041C9E7FB21E93FFFFFEF7FEE
:1033E0002DE9F0438BB004460D4600F071F8DFF88C
:1033F000DC80064698F900300F46013333D0204672
:10340000294601F013FA70B329A3D3E9002320461B
:10341000294607F01FFE814650BB27A3D3E90023AE
:103420002046294607F0F8FDE8B1042600200021D7
:1034300098F90030224A022BCDF82090CDE90445BE
:10344000CDE902450096CDE90601019229D06846F2
:1034500001F0F2F928B3089B1BB101F06FFA089B49
:103460000360DDE90667304639460BB0BDE8F083FE
:1034700003200021124A98F90030CDE90445CDE936
:1034800002450090089101922BB94FF060420D4B1C
:10349000CDE90623DBE700200B49022BCDE906012D
:1034A000D5D101F04BFA22230360D4E7AFF30080BB
:1034B000EF39FAFE422E864051302DD5104987C093
:1034C00084DD0000FFFFEF470000F07FD80100100F
:1034D0002DE9F047B84F21F00042BA4284B00C46C3
:1034E0004FEAD176054612D9B44FBA4240F28E80E7
:1034F000C1F313030343024640F0F780002E00F0AF
:10350000818000252946284604B0BDE8F087AC4BF1
:103510009A4200F2B880AB4B9A4240F2D3804FF00F
:10352000000A2A4623462846214607F003FB8CA3BF
:10353000D3E9002306460F4607F0FCFA8AA3D3E935
:10354000002307F03FF932463B4607F0F3FA88A321
:10355000D3E9002307F038F932463B4607F0EAFA90
:1035600085A3D3E9002307F02DF932463B4607F047
:10357000E1FA83A3D3E9002307F026F932463B465C
:1035800007F0D8FA02460B462846214607F01AF9FA
:1035900002460B4606460F462846214607F0CAFA61
:1035A00080468946BAF1000F00F0B38032463B46B0
:1035B00000204FF0804107F005F902460B464046D7
:1035C000494607F0E1FB02460B46DDE9020107F040
:1035D000F9F8DDE9002307F0F5F80B4602467A49D1
:1035E000002007F0EFF86FF47F739A4580F2AD800A
:1035F0000AF57A7A01EB0A5100224FF0B87307F00E
:1036000099FA0546284604B0BDE8F0875EA3D3E9E1
:10361000002307F01FFD00286FD15DA3D3E900232D
:103620002846214607F0F8FC00287FF46AAF5AA329
:10363000D3E90023654F284607EBC606214607F06D
:1036400079FAD6E9002307F0BFF807F023FD824698
:1036500007F006FA52A3D3E9002306460F4607F007
:1036600069FA02460B462846214607F0ABF84EA3FE
:10367000D3E90023CDE900013046394607F05AFA74
:10368000CDE9020115E0524B9A42D0D8514BF400DB
:103690002344D3E9002307F095F84F4BCDE900010F
:1036A0002344D3E90034CDE90234C6F1010AAAEB80
:1036B000060ADDE90223DDE9000107F083F805468B
:1036C0000C462EE73AA3D3E9002307F07DF8002249
:1036D0003D4B07F0BFFC00283ED028462146002283
:1036E000394B07F071F805468CE70B4607F06CF88C
:1036F0000546284604B0BDE8F0872DA3D3E9002392
:103700001046194607F016FA0546284604B0BDE8EB
:10371000F0873046394600224FF0804307F052F8D8
:1037200002460B464046494607F02EFB2A462346F2
:1037300007F048F802460B460020234907F042F8FC
:103740000546284604B0BDE8F0870546284601EB4B
:103750000A5104B0BDE8F0878246E2E6AFF300808C
:10376000D0A4BE726937663EF16BD2C541BDBB3E87
:103770002CDE25AF6A56113F93BDBE166CC1663F65
:103780003E5555555555C53FEF39FAFE422E8640F8
:1037900051302DD5104987C0FE822B654715F73F64
:1037A0000000E0FE422EE63F763C7935EF39EA3DF7
:1037B0009C7500883CE4377E412E8640FFFFEF7FFA
:1037C000422ED63FFFFF2F3E0000F03F88DD000075
:1037D000B1A2F03F98DD0000A8DD0000000000006D
:1037E0002DE9F04FC84C21F00045A5428FB040F3C1
:1037F0008A801446C54A0E46954226DCB8A3D3E912
:103800000023002940F38A8006F0DCFFC04B064607
:103810009D420F4600F04681B3A3D3E9002306F092
:10382000D1FF02460B463046C4E90023394606F074
:10383000C9FFADA3D3E9002306F0C4FF0127C4E903
:10384000020138460FB0BDE8F08FB24A954240F30E
:103850008480B14A954200F31B812F15A7F21647C9
:10386000A5EB07518B46824607F014FC07F0F8F8E9
:103870008046894642464B4650465946CDE908891E
:1038800006F0A0FF0022A54B07F054F98B468246B4
:1038900007F000FC07F0E4F88046894642464B46B4
:1038A00050465946CDE90A8906F08CFF00229B4B11
:1038B00007F040F900220023CDE90C0107F0A2FB3C
:1038C000002800F05F81002340464946002207F0AF
:1038D00099FB002814BF01230223022090493A4695
:1038E000CDE90001214608A800F0BEFA002E0746E7
:1038F00010DA6268E36802F1004203F100434742D4
:103900006260E36006E0002400250027C2E902456A
:10391000C2E9000138460FB0BDE8F08F06F054FF51
:103920007B4B06469D420F4600F00E816EA3D3E905
:10393000002306F049FF02460B4630463946C4E9EB
:10394000002306F03FFF68A3D3E9002306F03CFF05
:103950004FF0FF37C4E90201DCE700F063FF64A326
:10396000D3E900238046894607F0E4F800226D4B36
:1039700006F02AFF07F08EFB074607F071F858A300
:10398000D3E9002382468B46CDE904AB07F0D2F899
:1039900002460B464046494606F014FF52A3D3E9BF
:1039A0000023CDE902015046594607F0C3F81F2F06
:1039B0008046894602460B46DDE9020140F3B480A9
:1039C00006F000FF83468A462D15CAF30A53EB1A08
:1039D000102B40F3B48048A3D3E90023DDE90401B0
:1039E00007F0A8F88046894602460B46DDE9020149
:1039F00006F0E8FE82468B4602460B46DDE90201F0
:103A000006F0E0FE42464B4606F0DCFE3CA3D3E95E
:103A1000002380468946DDE9040107F08BF8424621
:103A20004B4606F0CFFE0B4602468046894650467E
:103A30005946CDE906AB06F0C5FEC1F30A53ED1AAF
:103A4000312D83468A4600F39F8002460B46DDE90E
:103A50000601C4E90023CDE90201DDE902015A466D
:103A6000534606F0AFFE42464B4606F0ABFE02461A
:103A70000B46002EC4E90223BFF64CAF0AF1004307
:103A800001F10041C4E900B3C4E902017F4241E70A
:103A900002460B4606F096FE0027C4E90201C4E97F
:103AA000000137E714A3D3E9002306F08BFE14A32B
:103AB000D3E900230F46064606F084FE02460B4675
:103AC00030463946C4E9002306F07CFE0CA3D3E956
:103AD000002306F077FE0127C4E902011AE700BFC0
:103AE00000004054FB21F93F3163621A61B4D03DBC
:103AF00083C8C96D305FE43F0000601A61B4D03DF7
:103B00007370032E8A19A33BFB21E93F7BD9024046
:103B1000FB21F93FFB213941FFFFEF7F000070419E
:103B200038DE00000000E03F06F04CFE3A4B7A1E03
:103B300053F822308346AB428A463FF445AF5A469B
:103B40005346C4E9002388E72BA3D3E9002306F0FA
:103B50003BFE2BA3D3E900230F46064606F034FEB6
:103B600002460B4630463946C4E9002306F02AFED9
:103B700023A3D3E9002306F027FE4FF0FF37C4E963
:103B80000201C7E60323A8E61FA3D3E90023DDE96A
:103B9000040106F0CFFF8046894602460B46DDE968
:103BA000060106F00FFE82468B4602460B46DDE913
:103BB0000601CDE902AB06F005FE42464B4606F093
:103BC00001FE13A3D3E9002380468946DDE9040101
:103BD00006F0B0FF42464B4606F0F4FD02460B46A7
:103BE000804689465046594606F0ECFD83468A4693
:103BF000A5E700BFAFF300800000601A61B4D03DBC
:103C00007370032E8A19A33B0000002E8A19A33B70
:103C1000C14920259A837B39B8DD000000000000EF
:103C20002DE9F04F21F00046B6F1795F85B00C46E2
:103C300092469B4605466BDA07F02CFA002800F006
:103C4000E1802A4623462846214606F073FF74A3E6
:103C5000D3E900238046894606F06CFF72A3D3E9BE
:103C6000002306F0B1FD42464B4606F063FF70A309
:103C7000D3E9002306F0A6FD42464B4606F05AFF64
:103C80006DA3D3E9002306F09FFD42464B4606F0A4
:103C900051FF6BA3D3E9002306F094FD42464B4647
:103CA00006F048FF68A3D3E9002306F08DFD4246E5
:103CB0004B4606F03FFFCDE900010022644B404631
:103CC000494606F037FFDDE9002306460F46404629
:103CD000494606F02FFF5246804689465B462846F5
:103CE000214606F027FF02460B464046494606F0AD
:103CF00069FD02460B463046394606F063FD024632
:103D00000B460020534906F05DFD05B0BDE8F08F7D
:103D100002460B4606F00EFF41A3D3E9002380467E
:103D2000894606F007FF40A3D3E9002306F04CFDC7
:103D300042464B4606F0FEFE3DA3D3E9002306F0C3
:103D400041FD42464B4606F0F5FE3BA3D3E9002376
:103D500006F03AFD42464B4606F0ECFE38A3D3E9A6
:103D6000002306F02FFD42464B4606F0E3FE36A345
:103D7000D3E9002306F028FD4B46424606F0DAFE62
:103D8000354BCDE900019E4297DD344B00229E4227
:103D90003DDCA6F5001300202E4916461F4606F00E
:103DA00011FDCDE902010022294B4046494606F0AB
:103DB000C1FE32463B4606F005FDDDE9002306461E
:103DC0000F464046494606F0B5FE524680468946B3
:103DD0005B462846214606F0ADFE02460B464046AD
:103DE000494606F0EFFC02460B463046394606F0DF
:103DF000E9FC02460B46DDE9020106F0E3FC05B0F2
:103E0000BDE8F08F0020134905B0BDE8F08F144BDA
:103E10000026CDE90223134FC5E700BFAFF30080B2
:103E2000D43888BEE9FAA8BDC4B1B4BD9EEE213E27
:103E3000AD529C804F7E923E9015CB19A001FA3E68
:103E40007751C1166CC1563F4C5555555555A53F38
:103E50000000E03F0000F03F3233D33F0000E93F75
:103E60000000E73F0000D23F2DE9F04F1F46ADF5BF
:103E7000197DBF4C0793D31E84FB0354DB17C3EBA0
:103E8000A40323EAE375BB4CA29E6B1C54F8266086
:103E9000A3EB83037C1E02EBC3030593331909953F
:103EA0000496019407460B91A5EB04081DD44344E6
:103EB000002400255E1C0DF18009DDF88CA209E0CC
:103EC0005AF8280006F0CCFD08F10108B045E9E8F1
:103ED00002010AD0B8F1000FF2DA2046294608F1B3
:103EE0000108B045E9E80201F4D1049B002BC0F2BF
:103EF000B783A7F108021146079B0392DB0020AAB3
:103F000002EB0309029301EB0308049B72AA02EB84
:103F1000C30B0DF5E07A019B002BC0F295814D4655
:103F200000260027039C75E90223F4E9020106F04C
:103F300001FE02460B463046394606F045FC444534
:103F400006460F46EFD1EAE80267DA4509F10809AB
:103F5000E1D1DDE90210049B01449B468A469B00A7
:103F60000BA9A3F10802CB1808930CAB13440A93D6
:103F700098AB03EBCB03BBF1000F53E9284529DDD8
:103F800070AB0DF1300903EBCB0800227A4B2046D1
:103F9000294606F0CFFD07F07DF806F061FD00220E
:103FA000764B06460F4606F0C5FD02460B462046F8
:103FB000294606F007FC07F06DF878E9022349F876
:103FC000040B3946304606F0FFFB70AB98450446BB
:103FD0000D46DAD1DDF81490204629464A4600F015
:103FE0002FFC00224FF07F5304460D4606F0A2FD41
:103FF000FFF72AF90022624B06F09CFD02460B46B1
:104000002046294606F0DEFB0D46044607F042F83E
:10401000804606F025FD0B4602462946204606F05E
:10402000D1FB4B46002B06460F4640F3E1800BF1D7
:10403000FF310CAA52F82150C9F1180345FA03F2D6
:1040400002FA03F3EB1A0CA8C9F1170540F8213066
:10405000904443FA05F5002D2CDDBBF1000F08F16B
:10406000010840F399820C9C002C40F0A780BBF122
:10407000010F0AD001220CA951F8044F531C002C47
:1040800040F09E809B451A46F6D1059B002B0EDD25
:10409000012B00F0B581022B09D10BF1FF320CABE3
:1040A00053F822300CA9C3F3150341F82230022D36
:1040B00000F0AF80002200233046394606F0A2FF10
:1040C000002800F06B82049B0BF1FF394B4510DC9C
:1040D00000220BF18043013B0CA9089801EB8303FC
:1040E00053F80419834242EA0102F9D1002A40F050
:1040F000B580049B0CAA013B52F82330002B40F002
:10410000A18001230A9A52F8041901330029FAD038
:104110005B440BF101099945069349DC099A07991B
:1041200009EB020801EB0B0508F1804802EB030BD9
:10413000A39B08F1FF3803EB880870AB03EBC909B8
:10414000A39B20A903EB8B0301EBC505029358F851
:10415000040F06F085FC019B05F1080B002BC5E957
:10416000000128DB039C00260027083D0CE000BF6F
:10417000ABAAAA2A80DF00000000703E0000704158
:104180000000204075E80201F4E9022306F0D2FCA9
:1041900002460B463046394606F016FB54450646A5
:1041A0000F46EFD1029BE9E8026798455D46CED104
:1041B000DDF818B0DCE600260027F3E70123002233
:1041C000C4F180740CA99B4541F822400EDD51F8E2
:1041D00023206FF07F4001EB830301EB8B0100E0B4
:1041E0001A68821A43F8042B8B42F9D101244CE758
:1041F00006D10BF1FF330CAA52F82350ED152AE734
:104200000022874B06F01CFF002840F0BE810546C7
:1042100050E732463B460020824906F0D3FA064674
:104220000F46002C3FF446AF059A00207D4900F070
:1042300007FB02460B463046394606F0C3FA0646EF
:104240000F4637E7012363E700260027EAE8026705
:10425000DA4509F108097FF45EAE7AE6059A0CABFF
:1042600053F82930183ACDE9068505926BB909F162
:104270008043013B0CA901EB830353F8041909F1B6
:10428000FF39183A0029F8D00592059A00206549AF
:1042900000F0D6FAB9F1000F04460D46C0F2E781EE
:1042A0004FF0000A4FEAC90370AA02EB0308089313
:1042B0000CAB03EB8906DFF870B108F10807043690
:1042C00056F8040D06F0CCFB22462B4606F032FCD5
:1042D0005B4667E9020152462046294606F02AFC61
:1042E0000CAB9E4204460D46EAD1C3464FF0000A8D
:1042F00048AB03930193CDF8149009F10103DDF865
:1043000010900293B9F1000FC0F23C8142A3D3E9AF
:104310000023DFF818815D4600260027002403E013
:10432000544510DCF8E80223F5E8020106F002FC2F
:1043300002460B463046394606F046FA0134A1459E
:1043400006460F46ECDA019B0AF1010AE3E8026730
:104350000193029BABF1080B9A45D3D1A29BDDF8E8
:104360001490032B45D8DFE813F0EC00060006009C
:10437000650048AB03930024B9F1000F21460CDB24
:10438000039B984603EBC905083575E902232046CF
:1043900006F01AFAA8450446F7D1079B002B40F017
:1043A000368126460F4622460B460B9C0399C4E9EC
:1043B0000067D1E9000106F005FAB9F1000F0746E0
:1043C0000E4611DD314601244E46039D3846F5E97F
:1043D000022306F0F9F90134A6420746F6DA079BF4
:1043E0000E46002B40F025813A4633460B99C1E931
:1043F0000223069B03F007000DF5197DBDE8F08F41
:104400000BF1FF320CAB53F822300CA9C3F31603A7
:1044100041F822304BE600BF00000040FB21F93F8D
:104420000000E03F0000F03F0000703E48DF000069
:1044300048AB0393B9F1000F40F33581039A4FEA7B
:10444000C9030193D318CDF808909846D3E900AB7F
:10445000914658E9026752465B463046394606F0B7
:10446000B3F904460D4602460B463046394606F07F
:10447000A9F952465B4606F0A7F9C8E9000168E9C8
:104480000245C145A246AB46E3D1DDF80890B9F13B
:10449000010F40F30881019B039A0DF5947B1344AF
:1044A0009A46D3E9006701935AE9028932463B46AE
:1044B0004046494606F088F904460D4602460B463A
:1044C0004046494606F07EF932463B4606F07CF906
:1044D000CAE900016AE90245D34526462F46E3D1E1
:1044E00000231946019C039A083402F110051E4668
:1044F00074E90223304606F067F9A5420346F6D177
:104500008C46039A1146D2E90082D1E902E9079963
:10451000002900F091800B9C09F100402361069B6B
:1045200002F100420CF10041E06003F0070062601C
:104530006161C4F80080C4F808E00DF5197DBDE89C
:10454000F08F0023089D039F08353D442E461946F1
:104550001C4676E90223204606F036F9B7420346A8
:10456000F6D10C46079A0AB104F1004418462146D8
:104570000B9BC3E90001069B03F007000DF5197DB5
:10458000BDE8F08F00260027DDE6BBF1000F08F143
:1045900001087EDD022566E5002476E5CDE9068585
:1045A000059D304639466A4200F04AF900223F4BE9
:1045B00006460F4606F044FD00B300223C4B304651
:1045C000394606F0B7FA06F065FD044606F048FAEB
:1045D0000022364B06F0AEFA0B460246394630460C
:1045E00006F0F0F806F056FD0BF101090CAB18359A
:1045F00043F82B00059543F8294046E630463946F6
:1046000006F048FD0CABD94643F82B003DE60B46BF
:1046100001F100450B9E0399C6E90045D1E900016F
:10462000224606F0CFF8B9F1000F07460E463FF7D5
:10463000C9AE06F10046D7E6184646467446174608
:104640004D4661460B9BC3E90401C3E90067C3E91A
:104650000245069B03F007000DF5197DBDE8F08FBC
:10466000A7F108030393079BDB00029371E4A29B6D
:10467000032B3FF6BEAE01A252F823F08D46000098
:1046800073430000734300003144000000231C46C4
:1046900068E732463B460020064906F093F80225BB
:1046A00006460F4606E500239C462AE700007041B7
:1046B0000000703E0000F03F2DE9F04F21F0004671
:1046C000B6F1795F85B00C4690469946054604DA06
:1046D00006F0E0FC002800F085802A4623462846A4
:1046E000214606F027FA06460F4602460B462846A4
:1046F000214606F01FFA3EA3D3E9002382468B46EB
:104700003046394606F016FA3BA3D3E9002306F0FB
:1047100059F832463B4606F00DFA39A3D3E9002397
:1047200006F052F832463B4606F004FA36A3D3E9C7
:10473000002306F047F832463B4606F0FBF934A367
:10474000D3E9002306F040F80E9BCDE900019BB3AE
:104750000022334B4046494606F0ECF9DDE90023E0
:10476000CDE902015046594606F0E4F902460B46EF
:10477000DDE9020106F026F832463B4606F0DAF99A
:1047800042464B4606F01EF823A3D3E90023064613
:104790000F465046594606F0CDF902460B463046C4
:1047A000394606F011F802460B462846214606F027
:1047B00009F805B0BDE8F08F02460B463046394691
:1047C00006F0B8F914A3D3E9002305F0FBFF524625
:1047D0005B4606F0AFF92A46234605F0F5FF05B023
:1047E000BDE8F08F2846214605B0BDE8F08F00BF38
:1047F0007CD5CF5A3AD9E53DEB9C2B8AE6E55A3E6B
:104800007DFEB157E31DC73ED561C119A0012A3F06
:10481000A6F810111111813F495555555555C53F01
:104820000000E03F21F000431946704741F000418D
:1048300001F58010C00F7047002070470000000095
:10484000F8B5C1F30A5304460D460E4617460BBB96
:10485000034621F0004633431BD02F4B002206F0C5
:1048600069F92E4B04469F420D4637DB0E46C1F3D5
:104870000A53363B40F2FE723B4493421ADC002B53
:1048800011DD26F0FF4626F4E00646EA03552046F1
:104890002946F8BD40F2FF729342EBD102460B4627
:1048A00005F092FFF8BD13F1350F1DDA4CF25033CD
:1048B0009F420CDD14A1D1E9000122462B4600F0F5
:1048C00031F811A3D3E9002306F034F9F8BD2246EC
:1048D0000FA1D1E900012B4600F024F80CA3D3E985
:1048E000002306F027F9F8BD26F0FF4626F4E0067F
:1048F000363346EA0355204629460022084B06F087
:1049000019F9F8BDAFF300809C7500883CE4377E50
:1049100059F3F8C21F6EA50100005043B03CFFFFE1
:104920000000903C03F0004321F0004242EA030102
:10493000704700BF0028B8BF40427047014B18685D
:10494000704700BFDC01001070B539B105460C4658
:1049500008B1836B83B3B4F90C3013B90026304629
:1049600070BD2146284600F03BF8E36A064633B1A5
:10497000E169284698470028B8BF4FF0FF36A38961
:104980001B0620D4216B41B104F14003994202D0AF
:10499000284607F021F800232363616C21B12846E3
:1049A00007F01AF80023636400F0C4F90023A38120
:1049B00000F0C2F9304670BD00F0B6F9B4F90C3021
:1049C000002BCBD0CDE72169284607F005F8D9E7C1
:1049D000024B01461868FFF7B7BF00BFDC010010AB
:1049E000B1F90C302DE9F0419AB20C46110780461E
:1049F00044D4626843F40063002AA3815ADDA56AA7
:104A0000002D54D000229BB2D8F80060E169C8F8AC
:104A1000002013F4805240F0848001234046A847D0
:104A2000431C4BD0A389A56AE1695F0705D562687D
:104A3000236B801A0BB1E36BC01A02460023404679
:104A4000A847451C46D00021B4F90C30226923F454
:104A50000063A381DB04C4E9002100D52065216B3C
:104A6000C8F8006019B304F14003994202D04046EF
:104A700006F0B2FF00202063BDE8F0812669B6B1E0
:104A8000920718BF0023256808BF63692660AD1B25
:104A9000A3600AE02B463246676AE1694046B847A0
:104AA0000028A5EB000506442BDD002DF2DC0020DC
:104AB000BDE8F081E26B002AA1DCF8E7D8F800300D
:104AC000002BAFD01D2B01D0162B2CD1C8F80060C5
:104AD0000020EDE7D8F800501D2D1AD8144BB4F97A
:104AE0000C20EB40DB4313F0010314D1216922F4C5
:104AF0000062C4E90013D104A281B0D5002DAED16B
:104B0000ACE7A3894FF0FF3043F04003A381BDE839
:104B1000F081B4F90C2042F04002A2814FF0FF3046
:104B2000C6E7206D81E7A38943F04003A381BFE777
:104B30000100402010B5044682B008B1836B23B158
:104B4000B1F90C0048B902B010BD019100F0ECF8C9
:104B50000199B1F90C000028F5D0204602B0BDE85B
:104B60001040FFF73DBF00BF20B1054B014618685C
:104B7000FFF7E0BF034B0449186800F051BD00BFC8
:104B8000DC01001090DF0000354B0000014900F00F
:104B900047BD00BF494900002DE9F84F07460024F2
:104BA000042303217D682B4807F53B72F863C7F89F
:104BB000E412C7F8E822C7F8E04205F15C00EB60B8
:104BC0006C66C5E90044AC60C5E90444AC612146AB
:104BD000082200F017FFDFF888B0BE68DFF884A075
:104BE000DFF88490DFF884801B4BC5E9075BC5E9DB
:104BF00009A9C5F82C802146F360082206F15C0063
:104C00007466C6E90044B460C6E90444B46100F0C7
:104C1000F9FEFD68114BC6E9076BC6E909A9C6F89C
:104C20002C802146EB606C66C5E90044AC60C5E9A8
:104C30000444AC6105F15C00082200F0E3FE0123AE
:104C4000C5E9075BC5E909A9C5F82C80BB63BDE8C8
:104C5000F88F00BF8D4B0000090001001200020018
:104C6000E95D00000D5E0000495E0000695E000025
:104C700070B568254A1E05FB02F50E4605F1740164
:104C800006F0A6FE044640B100210C30666005F136
:104C900068022160A06000F0B5FE204670BD00BF34
:104CA0001F4B70B51D680646AB6B4BB305F53875E9
:104CB000D5E90134013B05D51EE0013B5A1C04F146
:104CC000680419D0B4F90C20002AF6D10025154B40
:104CD0006566C4E90055A560C4E90455A561294687
:104CE000E360082204F15C0000F08CFEC4E90C557E
:104CF000C4E91155204670BD286828B10546D7E79C
:104D00002846FFF749FFD1E704213046FFF7B0FFFF
:104D100028600028F2D10C2304463360EAE700BF84
:104D200090DF00000100FFFF836B03B17047FFF7C6
:104D300033BF00BF704700BF704700BF38B50A4C93
:104D40000A4D641BA4100AD004F18043013B05EB1B
:104D50008305013C55F804399847002CF9D1BDE88A
:104D6000384007F01BBC00BF900B00108C0B0010EC
:104D70001346F0B583B00F4601AA1946064605F062
:104D800015F838B305463046FFF78AFF044608B3E6
:104D900039464FF4DB73019A304600F07DFE00285F
:104DA0001CDB124B1249C4E90743124B124AE3625F
:104DB000EB05E081A581C4E9091202D4204603B0C5
:104DC000F0BD304602230022214600F009F92046BA
:104DD00003B0F0BD0024204603B0F0BD0025FFF76E
:104DE000A9FFA581FFF7A8FF2C46E7E7E95D0000D2
:104DF0000D5E0000695E0000495E0000024B0A463D
:104E000001461868FFF7B4BFDC0100100EB430B5DE
:104E100082B005AC54F8042B054D014623462868A2
:104E2000019402F011FC02B0BDE8304003B07047BD
:104E3000DC0100100C4B70B51C6805460E460CB129
:104E4000A36B33B1324629462046BDE8704000F0DE
:104E500039BE2046FFF768FF324629462046BDE8A6
:104E6000704000F02FBE00BFDC0100102DE9F043C0
:104E70000F4683B016461C46054610B1836B002BC7
:104E800077D0314601AA284604F090FF0646002854
:104E90007CD0B4F90C30002B56D01A076CD4E36ADE
:104EA000002B70D0E169002F55D02846984739462D
:104EB0004FF4DB73019A284600F0EEFDA389074604
:104EC0001B06D5F800804FD40023216BC4E90133C1
:104ED0002360C4E90433A36141B104F14003994262
:104EE00002D0284606F078FD002323634FF0000926
:104EF000616CC4F8349021B1284606F06DFDC4F809
:104F000044904FF00009A289636E22F4005223F40A
:104F10000053A2816366C4F848904946082204F110
:104F20005C0000F06FFD4F4536DB23482349C4E9A0
:104F300007402046224A234BC4E90912A681E78193
:104F4000E36203B0BDE8F0832023A381002FAED13C
:104F5000E36A5BB3E16928469847A3894FF00908E3
:104F60001B064FF0FF37AFD52169284606F034FD08
:104F7000AAE7FFF7D9FE84E721462846FFF7DAFDC6
:104F8000E36A002B8ED1002F91D1E6E72146284617
:104F9000FFF7DAFC3046D4E7FFF7CCFEA4F80C901C
:104FA000C5F80080FFF7C8FE4846CAE74FF0090879
:104FB0004FF0FF3788E700BFE95D00000D5E00009D
:104FC000495E0000695E000010B4044C13460A46B6
:104FD0000146206810BCFFF749BF00BFDC0100108C
:104FE00000F000B82DE9F04F0C4691B091461E46F6
:104FF000054608B1836BB3B1A38903F48473B3F599
:10500000847F18D0A76A002F00F05081012E59D05C
:10501000022E15D0A6B116234FF0FF382B60404664
:1050200011B0BDE8F08FFFF77FFEA38903F484730E
:10503000B3F5847FE6D121462846FFF77BFDE1E703
:105040004FF0000A2269D046002A5DD040F61A01CE
:10505000B4F90C309AB20A4208D1510566D4964A86
:10506000974200F0978043F40063A38121462846CD
:10507000FFF760FD8046002840F0158133464A4620
:10508000E1692846B847013000F00D81216B41B13C
:1050900004F14003994202D0284606F09DFC00230B
:1050A00023630021A389226923F40263C4E9002158
:1050B000A38104F15C00082200F0A4FC404611B07A
:1050C000BDE8F08F21462846FFF734FDA38913F48D
:1050D000805240F0C1803346E1692846B847B0F1BC
:1050E000FF3F804600F0DF80A3895E07226939D444
:1050F000180703D523680BB19B1A9844C1444FF09D
:10510000010A0026002AA1D12146284600F002FB10
:105110009CE7029AB4F90C3002F47042B2F5004FE9
:10512000A1D14FF480621343A381E2642EBBCB462E
:10513000BAF1000F3CD1A389DA0400F1B280012357
:105140005246E1692846B847431C8FD0D4F804C0C2
:10515000216BA0EB0C086346002975D0E06BA8EB2F
:1051600000082BE0D4F804C0236BA8EB0C08002B3C
:10517000C4D0E06BA8EB0008C0E701AAB4F90E1098
:10518000284600F09BF800287FF470AF059B09EBE0
:10519000030BCDE7B4F90E100029FFF664AF01AAA6
:1051A000284600F08BF80028B3D0B4F90C305AE749
:1051B000216B002947D0D4F804C0E06BA36B2269AF
:1051C000E0449B1AA8EB03080344C34547DAE26CAA
:1051D0000023524202EA0B084246E1692846B847DA
:1051E00001303FF443AF00222369216B62602360EA
:1051F00041B104F14003994202D0284606F0ECFB8D
:1052000000232363A389BBEB080B23F02003A381B6
:1052100010D02146284600F085FC00287FF426AFF8
:1052200063685B45FFF422AF2268A3EB0B035A448B
:10523000C4E9002304F15C000822002100F0E2FB35
:105240004FF00008EBE66368206822690021801AAD
:10525000A8EB00080344B8E7D4F8508045E708EB12
:1052600003005845B3D9ABEB08084244A3EB08034D
:10527000C4E9002341B104F14003994202D0284619
:1052800006F0AAFB00232363A38904F15C0023F04A
:105290002003A3810822002100F0B4FB4FF0000896
:1052A000BDE6206D52E74FF0FF38B8E61D234FF002
:1052B000FF382B60B3E600BF495E000070B50D46B5
:1052C0000023074C0646114628462360FCF7FDFAEA
:1052D000431C00D070BD2368002BFBD0336070BD31
:1052E0006C1000109368002B00F0DB802DE9F04F6C
:1052F000B1F90C300C469BB2190783B08246904638
:105300002BD522694AB313F00202D8F8006033D0DB
:1053100000273D46D4F824B0E169DFF8B892C5B162
:105320004D452B463A4628BF4B465046D8470028A5
:1053300040F3BF80D8F8083007441B1A2D1AC8F86C
:105340000830002B00F0A980D4F824B0E169002DCA
:10535000E6D1D6E900750836E1E72146504603F06C
:1053600003FD002840F03081B4F90C30D8F800601B
:105370009BB213F00202CBD113F001095ED14D466E
:10538000A7682068002D55D09A0540F19C80AF4257
:10539000BB4600F2DE8013F4906F2FD0D4E90417DF
:1053A00007EB4707A0EB010B07EBD777681C7F10D3
:1053B0005844B8423A4684BF07463A465B0540F136
:1053C000D9801146504606F003FB002800F0F68015
:1053D0005A462169019000F03DFAA289019B22F40E
:1053E000906242F08002A281A7EB0B0203EB0B005C
:1053F0006761AB462F4623612060A2605A4649464A
:1054000000F09EFA2368A2685B44AB460025D71BD8
:10541000A7602360D8F80870D944A7EB0B07C8F839
:105420000870002F39D0B4F90C30A7689BB22068FF
:10543000002DA9D1D6E900950836A3E73346914659
:10544000104617464E469B46002F6ED0002876D059
:1054500020682169B9454B4628BF3B4688426269AE
:1054600003D9A5681544AB4276DC9A4200F39880D4
:105470001346656A3246E1695046A847051E18DDA5
:10548000B9EB05090FD00120D8F808302E445B1B7A
:105490007F1BC8F80830002BD6D1002003B0BDE830
:1054A000F08F0020704721465046FFF743FB00284D
:1054B000EAD0B4F90C304FF0FF3043F04003A38141
:1054C00003B0BDE8F08F2369834217D36269AA4213
:1054D00014D83F4B676A9D4294BF2B466FF0004340
:1054E00093FBF2F3E16902FB03F350464A46B847E7
:1054F000B0F1000BDDDDA5EB0B058BE7AF4228BF5C
:105500002F4649463A4600F01BFAA3682268DB1B87
:105510003A44BB46A3602260002BECD121465046A2
:10552000FFF708FB0028E6D0C3E70BF1080353F8A8
:10553000047C9B4653F8086C0833002FF7D03A469A
:105540000A21304600F040F938B30130A0EB0609DB
:105550007EE72F46AB4651E731462A4600F0F0F988
:10556000236821462B4423605046FFF7E3FA0028C6
:1055700086D09EE7504606F02DFA034600287FF4B9
:1055800033AF2169504606F027FA0C22B4F90C30EB
:10559000CAF8002023F080038DE707F1010957E7DF
:1055A0001A4631461D46019300F0CAF9A1682268E7
:1055B000019BC91A1344A160236061E70C22B4F96E
:1055C0000C30CAF8002076E74FF0FF3066E700BFE6
:1055D000FEFFFF7F00FCFF7F2DE9F04110F53877DB
:1055E0001AD088460026D7E90154013D0ED4A3897C
:1055F000013D012B06D9B4F90E30013302D020460B
:10560000C04706436B1C04F16804F0D13F68002FCB
:10561000E9D13046BDE8F0813E463046BDE8F08134
:105620002DE9F84310F538761ED0884607464FF02E
:105630000009D6E90154013D10D4A389013D012B95
:1056400008D9B4F90E30013304D021463846C0479A
:1056500049EA00096B1C04F16804EED13668002E9B
:10566000E7D14846BDE8F883B1464846BDE8F8832F
:1056700070B50D4E0D4D761BB61006D000240134CA
:1056800055F8043B9847A642F9D1094E094D06F05A
:105690007FFF761BB61006D00024013455F8043B7A
:1056A0009847A642F9D170BD840B0010840B0010FE
:1056B0008C0B0010840B001070B50C46B1F90E1065
:1056C00090B0002915461E460FDA0023A2893360E8
:1056D00012F0800004D14FF480632B6010B070BDD5
:1056E000402218462A6010B070BD01AAFFF7E6FDFF
:1056F0000028EADB029B4FF4806203F47043A3F5B9
:105700000053B3FA83F34FF400605B0933602A60FF
:1057100010B070BD8A890B46920706D5012103F1AE
:10572000430259611A601A61704770B582B001ABCB
:105730006A460C460546FFF7BFFF00990646284615
:1057400006F046F9B4F90C30D8B1164A0099EA636C
:10575000019A43F08003A3812060C4E904011AB9CF
:105760003343A38102B070BD2846B4F90E1004F093
:1057700059FBA0B1A38923F0030343F001031BB23B
:10578000EEE79A05EED4012123F0030304F143026E
:1057900043F00203A381616122602261E2E7B4F970
:1057A0000C30DDE78D4B0000024B0146186806F017
:1057B0000FB900BFDC010010024B0146186806F06B
:1057C0000BB900BFDC010010830770B4CDB23DD02F
:1057D000541E0AB30378AB421FD0431C05E014F1FA
:1057E000FF3419D30278AA4217D013F0030F1846DA
:1057F00003F10103F3D1032C11D84CB30378AB426E
:105800000BD00444431C02E00278AA4205D09C421B
:10581000184603F10103F7D1002070BC704706461B
:105820000A0292B22A4342EA0242336830465340A7
:10583000A3F1013121EA030313F0803F06F10406CE
:10584000DCD1043C032C3046EFD8D6E71446D2E72F
:105850002046E2E7844641EA000313F0030349D1FE
:10586000403A23D30B6803604B6843608B688360C6
:10587000CB68C3600B6903614B6943618B698361CA
:10588000CB69C3610B6A03624B6A43628B6A8362B2
:10589000CB6AC3620B6B03634B6B43638B6B83639A
:1058A000CB6BC36340304031403ADBD230320BD354
:1058B0000B6803604B6843608B688360CB68C36090
:1058C00010301031103AF3D20C3205D351F8043BAA
:1058D00040F8043B043AF9D2043208D0D2071CBF86
:1058E00011F8013B00F8013B01D30B8803806046AF
:1058F000704700BF082A13D38B07B1D010F0030301
:10590000AED0C3F10403D21ADB071CBF11F8013B70
:1059100000F8013BA4D331F8023B20F8023B9FE79B
:10592000043AD9D3013A11F8013B00F8013BF9D20E
:105930000B7803704B7843708B78837060467047A8
:105940008842F0B40DD98B1883420AD9841832B139
:10595000224613F8014D994202F8014DF9D1F0BCED
:1059600070470F2A48D940EA01039B0746D1A2F1AC
:1059700010031B0901F1200707EB031701F11004C5
:1059800000F1100554F8106C103445F8106C54F800
:105990001C6C103545F81C6C54F8186C45F8186CE4
:1059A00054F8146CBC4245F8146CEBD1013302F08E
:1059B0000F051B01032D1944034421D90F462C4622
:1059C0001E1F57F804CB043C032C46F804CFF8D82C
:1059D0002C1F24F0030404342344214402F0030266
:1059E000002ABCD0013B0A4411F8014B914203F854
:1059F000014FF9D1F0BC70470346F1E70346F1E7E8
:105A00002A46EDE7F0B4860743D0541E002A3ED064
:105A1000CAB2034602E014F1FF3438D303F8012B75
:105A20009D07F8D1032C2BD9CDB245EA05250F2CC3
:105A300045EA054516D9A4F110073F0903F12006F0
:105A400006EB071603F1100242E9045542E902553C
:105A50001032B242F8D104F00F040137032C03EBEB
:105A600007130DD91E462246043A032A46F8045B62
:105A7000FAD8221F22F003020432134404F0030474
:105A80002CB1C9B21C4403F8011B9C42FBD1F0BCF1
:105A9000704714460346C5E7F8B50E460025084C86
:105AA000114607461A4630462560FBF7EDFF431CBA
:105AB00000D0F8BD2368002BFBD03B60F8BD00BFD1
:105AC0006C10001070B50D461446064608B1836B85
:105AD00053B1A368013B002BA3600CDBE8B2236841
:105AE0005A1C22601D7070BDFFF71EF9A368013BB0
:105AF000002BA360F2DAA269934202DBE8B20A2823
:105B0000EDD1224629463046BDE8704003F0BEB8CC
:105B1000838903F00903092B01D000207047FFF7A8
:105B200023B800BFF8B50C46054610B1836B002BB7
:105B300040D0B4F90C309AB2970407D4626E43F4A3
:105B4000005322F400526266A3819AB200219606A5
:105B5000616038D450071AD4D10662D512074ED4EA
:105B600043F00403A3812369002B55D0B4F90C70D2
:105B7000BEB2B3072AD1226928462260256A63692A
:105B8000E169A8470028606017DD0020F8BD216B9F
:105B90000029E8D004F14003994202D0284605F0DC
:105BA0001BFF0020E36B20636360002BDBD0A36B43
:105BB0002360F8BDFFF7B8F8BBE7B4F90C3016D195
:105BC00043F02003A3814FF0FF30F8BD0122194BB1
:105BD000A2811868184906F00906FFF7FDFC092E96
:105BE000A781C8D121462846FEF7FAFEC3E7002266
:105BF00043F04003A38162604FF0FF30F8BD2146BF
:105C00002846FEF797FF0028DDD1B4F90C30A060DC
:105C1000A06123F00803A3E721462846FFF77AFD99
:105C2000A4E7092243F040032A604FF0FF30A3812C
:105C3000F8BD00BF90DF0000115B000000290CBF21
:105C4000022200224FF4806300F000B82DE9F043F7
:105C5000534D83B02D680446884617461E4615B13D
:105C6000AB6B002B65D0022F05D0012F00F2948082
:105C7000002EC0F2918021462846FEF75BFF216B83
:105C800041B104F14003994202D0284605F0A4FE38
:105C9000002323630022B4F90C30A26162601A066B
:105CA0005AD423F44A6323F00303022FA38144D080
:105CB00001AB6A4621462846FFF7FEFCA38918433C
